{
  "_format": "hh-sol-artifact-1",
  "contractName": "WavePortal",
  "sourceName": "contracts/WavePortal.sol",
  "abi": [
    {
      "inputs": [],
      "stateMutability": "nonpayable",
      "type": "constructor"
    },
    {
      "inputs": [],
      "name": "getTotalWaves",
      "outputs": [
        {
          "internalType": "uint256",
          "name": "",
          "type": "uint256"
        }
      ],
      "stateMutability": "view",
      "type": "function"
    },
    {
      "inputs": [],
      "name": "wave",
      "outputs": [],
      "stateMutability": "nonpayable",
      "type": "function"
    },
    {
      "inputs": [
        {
          "internalType": "address",
          "name": "",
          "type": "address"
        }
      ],
      "name": "waveCountbyWaver",
      "outputs": [
        {
          "internalType": "uint256",
          "name": "",
          "type": "uint256"
        }
      ],
      "stateMutability": "view",
      "type": "function"
    }
  ],
  "bytecode": "0x608060405234801561001057600080fd5b506100386040518060600160405280602781526020016109576027913961003d60201b60201c565b61021e565b6100d98160405160240161005191906101cd565b6040516020818303038152906040527f41304fac000000000000000000000000000000000000000000000000000000007bffffffffffffffffffffffffffffffffffffffffffffffffffffffff19166020820180517bffffffffffffffffffffffffffffffffffffffffffffffffffffffff83818316178352505050506100dc60201b60201c565b50565b6100fd816100f861010060201b6101f61761012160201b60201c565b60201c565b50565b60006a636f6e736f6c652e6c6f679050600080835160208501845afa505050565b61013360201b61041317819050919050565b61013b6101ef565b565b600081519050919050565b600082825260208201905092915050565b60005b8381101561017757808201518184015260208101905061015c565b60008484015250505050565b6000601f19601f8301169050919050565b600061019f8261013d565b6101a98185610148565b93506101b9818560208601610159565b6101c281610183565b840191505092915050565b600060208201905081810360008301526101e78184610194565b905092915050565b7f4e487b7100000000000000000000000000000000000000000000000000000000600052605160045260246000fd5b61072a8061022d6000396000f3fe608060405234801561001057600080fd5b50600436106100415760003560e01c80636fe15b44146100465780639a2cdc0814610050578063a61155b91461006e575b600080fd5b61004e61009e565b005b6100586101b0565b6040516100659190610436565b60405180910390f35b610088600480360381019061008391906104b4565b6101de565b6040516100959190610436565b60405180910390f35b60016000808282546100b09190610510565b9250508190555060018060003373ffffffffffffffffffffffffffffffffffffffff1673ffffffffffffffffffffffffffffffffffffffff16815260200190815260200160002060008282546101069190610510565b9250508190555061014c6040518060400160405280601281526020017f2573206465752074636861757a696e686f21000000000000000000000000000081525033610217565b6101ae6040518060600160405280602381526020016106b16023913933600160003373ffffffffffffffffffffffffffffffffffffffff1673ffffffffffffffffffffffffffffffffffffffff168152602001908152602001600020546102b3565b565b60006101d66040518060600160405280602181526020016106d460219139600054610352565b600054905090565b60016020528060005260406000206000915090505481565b60006a636f6e736f6c652e6c6f679050600080835160208501845afa505050565b6102af828260405160240161022d9291906105e3565b6040516020818303038152906040527f319af333000000000000000000000000000000000000000000000000000000007bffffffffffffffffffffffffffffffffffffffffffffffffffffffff19166020820180517bffffffffffffffffffffffffffffffffffffffffffffffffffffffff83818316178352505050506103ee565b5050565b61034d8383836040516024016102cb93929190610613565b6040516020818303038152906040527f0d26b925000000000000000000000000000000000000000000000000000000007bffffffffffffffffffffffffffffffffffffffffffffffffffffffff19166020820180517bffffffffffffffffffffffffffffffffffffffffffffffffffffffff83818316178352505050506103ee565b505050565b6103ea8282604051602401610368929190610651565b6040516020818303038152906040527fb60e72cc000000000000000000000000000000000000000000000000000000007bffffffffffffffffffffffffffffffffffffffffffffffffffffffff19166020820180517bffffffffffffffffffffffffffffffffffffffffffffffffffffffff83818316178352505050506103ee565b5050565b610405816103fd6101f6610408565b63ffffffff16565b50565b610413819050919050565b61041b610681565b565b6000819050919050565b6104308161041d565b82525050565b600060208201905061044b6000830184610427565b92915050565b600080fd5b600073ffffffffffffffffffffffffffffffffffffffff82169050919050565b600061048182610456565b9050919050565b61049181610476565b811461049c57600080fd5b50565b6000813590506104ae81610488565b92915050565b6000602082840312156104ca576104c9610451565b5b60006104d88482850161049f565b91505092915050565b7f4e487b7100000000000000000000000000000000000000000000000000000000600052601160045260246000fd5b600061051b8261041d565b91506105268361041d565b925082820190508082111561053e5761053d6104e1565b5b92915050565b600081519050919050565b600082825260208201905092915050565b60005b8381101561057e578082015181840152602081019050610563565b60008484015250505050565b6000601f19601f8301169050919050565b60006105a682610544565b6105b0818561054f565b93506105c0818560208601610560565b6105c98161058a565b840191505092915050565b6105dd81610476565b82525050565b600060408201905081810360008301526105fd818561059b565b905061060c60208301846105d4565b9392505050565b6000606082019050818103600083015261062d818661059b565b905061063c60208301856105d4565b6106496040830184610427565b949350505050565b6000604082019050818103600083015261066b818561059b565b905061067a6020830184610427565b9392505050565b7f4e487b7100000000000000000000000000000000000000000000000000000000600052605160045260246000fdfe2573206ac3a1206465752025642074636861757a696e686f73206e6f20746f74616c2154656d6f7320756d20746f74616c2064652025642074636861757a696e686f7321a26469706673582212209e4a5ab5902a5b98b3da48210794415e13122043e05c31dbe085e1c1c9e1422e64736f6c634300081c0033556d20636f6e747261746f2061696e6461206ec3a36f2074c3a36f20696e74656c6967656e7465",
  "linkReferences": {},
  "deployedLinkReferences": {}
}